:1000000000308A00272800000A108A100A1182078F
:10001000403479342434303419341234023478348E
:100020000034103425308400831300080319262877
:100030000130F800F701F70B1B28F80B1A284A309B
:10004000F700F70B21282428800B18280800030844
:100050001F398300FF30A000831603170908C03939
:10006000890003131F129F120030031788008312A8
:1000700087018801890183130030831603138600EA
:1000800083128601831687008312A000A101A201BA
:10009000A301A40121080420F800860007140430FD
:1000A000A5001220071022080420F80086008714FB
:1000B0000430A5001220871023080420F8008600D1
:1000C00007150430A5001220071124080420F800A9
:1000D000860087150430A50012208711A10A210887
:1000E000093C031CA1012108093C0319A20A2208AA
:1000F000093C031CA2012208093C0319A30A220897
:10010000093C03188628A308031D00304A28630011
:04400E00A12CFF3FA3
:00000001FF
;PIC16F887
;CRC=D8F1  CREATED="02-abr.-23 18:16"
